S02A000053414D5732352D485454502D50726F766973696F6E5F676F6F676C655F636C6F75642E73726563A6
S214000000684100200D8F0000098F0000098F000056
S21400001000000000000000000000000000000000DB
S214000020000000000000000000000000098F000033
S2140000300000000000000000098F00009D980000EE
S214000040098F0000098F0000098F00005527000067
S214000050F9740000098F0000098F00005930000075
S2140000600D0D0000657A0000757A0000857A0000A4
S214000070957A0000A57A0000B57A0000D98E0000B7
S214000080E98E0000F98E00009D370000AD370000B5
S214000090BD3700000000000000000000098F0000CF
S2140000A0098F0000098F0000098F0000098F0000EB
S2140000B00000000010B5064C2378002B07D1054B36
S2140000C0002B02D0044800E000BF0123237010BDBF
S2140000D060030020000000009C080100084B10B5DB
S2140000E0002B03D00749084800E000BF0748036814
S2140000F0002B00D110BD064B002BFBD09847F9E72C
S21400010000000000640300209C0801009C08010019
S2140001100000000030B585B0040000230393056896
S214000120304B98472B79002B58D101332B712E4B2F
S21400013098479F2201AB1A706279D10900230029E3
S21400014004D15309DB0129498C4663441F21114021
S21400015001228A405A61012201A92068244B98474F
S2140001600023032203A92068224DA8476279D109FB
S2140001700023002904D15309DB011C498C46634443
S2140001801F21114001228A409A61002322681371C0
S21400019023790A2B17D89B00174AD3589F46174B2C
S2140001A014E0174B12E0174B10E0174B0EE0174BFE
S2140001B00CE0174B0AE0174B08E0174B06E0174B0E
S2140001C004E0174B02E0002300E0164B039A9A4225
S2140001D002D0142005B030BD0020FBE7024B984744
S2140001E00520F7E7E5730000257400000044004191
S2140001F0657E00009D7C0000F0EA00001F430000C2
S2140002001F4401001F4402001F4502001F45010055
S2140002101F4602001F4603001F8600001F470100FE
S2140002201F4800001F650000F0B585B004000E00F2
S21400023001921F005A1803790A2B15D89B003249E1
S214000240CB589F468023DB0212E080231B030FE07F
S21400025080235B030CE080239B0309E08023DB0301
S21400026006E080231B0403E0002301E080235B02FA
S21400027017209A4201D905B0F0BD2568234B984750
S2140002802B79002B3CD101332B71214B98470B2344
S21400029002AA1370D670330A9370360C56706279C1
S2140002A0D1090023002904D15309DB0119498C46E2
S2140002B063441F21114001228A405A61052202A987
S2140002C02068154B9847002F13D16279D109002377
S2140002D0002904D15309DB010E498C4663441F21D3
S2140002E0114001228A409A61236800221A71002078
S2140002F0C1E700233A0001992068084DA847E4E7C3
S214000300034B98470520B6E71CEB0000E57300009A
S2140003102574000000440041657E00009D7C0000BE
S214000320F0B5DE4657464E464546E0B585B0050074
S2140003300E0001921F005A1803790A2B15D89B004D
S214000340AE49CB589F468023DB0212E080231B0376
S2140003500FE080235B030CE080239B0309E08023EF
S214000360DB0306E080231B0403E0002301E0802378
S2140003705B0217209A4206D905B03CBC90469946C7
S214000380A246AB46F0BD2C689D4B98472379002BC0
S21400039000D02EE1013323719A4B9847062302AA18
S2140003A013706A79D1090023002904D15309DB01AF
S2140003B095498C4663441F21114001228A405A61A8
S2140003C0012202A92868914B98476A79D10900232F
S2140003D0002904D15309DB018B498C4663441F2155
S2140003E0114001228A409A61FF22324080235B003E
S2140003F09B1A1A1C9BB2BB4200D93A1C93B29A466F
S214000400022302AA1370D670330A9370330C53700B
S2140004106A79D1090023002904D15309DB017A49FE
S2140004208C4663441F21114001228A405A610422EF
S21400043002A92868754B98475346002B45D16A7920
S214000440D1090023002904D15309DB016E498C46EB
S21400045063441F21114001228A409A612B68196863
S21400046001220B7E1342FCD06A79D10900230029B1
S21400047004D15309DB0164498C4663441F211140B3
S21400048001228A405A612B681B681A7ED20701D562
S21400049005229A62286802680421137E0B42FCD06B
S2140004A0137E00245B0709D5538B5B0701D5042315
S2140004B053838379012B0ED0946AE4B20121002382
S2140004C098460420B4462E0010E05246019928684B
S2140004D04E4B9847B3E7936ADB05DC0DEEE7AB7946
S2140004E0012B1AD0946AE4B221421AD033681A68F3
S2140004F0137E0B42FCD0137E0B4201D04346936220
S21400050035682A68137E0342FCD0137E0342EBD084
S214000510538B0342E3D05083E1E7946AE405E40D8D
S214000520E2E7350066466A79D1090023002904D13E
S2140005305309DB0134498C4663441F2111400122D4
S2140005408A409A611020A3064FD45346FF1ABBB2C6
S2140005501900019A91460020002B46D01F239B4687
S21400056001242A4B9846534601938A4658E01A00BF
S21400057049462868254B9847A4E0906AC005C00DF8
S214000580E1E0BB79012B1AD0906AC0B204421AD0BF
S2140005902B681A68137E2342FCD0137E234201D0B8
S2140005A0002393622F683A68137E0B42FCD0137EBA
S2140005B00B42EBD0538B0B42E3D05183E1E7906ABA
S2140005C0C005C00DE2E76B79D9090022002904D1E5
S2140005D05A09D2010C498C46624459460B40210008
S2140005E099409161830613D510202B6800221A715A
S2140005F0C2E6044B98470520BEE6C0464CEB00001A
S214000600E57300002574000000440041657E00008C
S2140006105346019A9B1A9BB29A46002B00D194E04F
S21400062002AB06221A706B79D9090022002904D180
S2140006305A09D20146498C46624459460B4021006D
S21400064099405161220002A92868C0476B79D909F0
S2140006500022002904D15A09D2013D498C46624441
S21400066059460B40210099409161019A9446664490
S214000670E144574680235B009A4501D9354B1F88D5
S214000680BBB20193022302AA1370D670330A93708A
S214000690330C53706B79D9090022002904D15A090A
S2140006A0D2012B498C46624459460B4021009940A2
S2140006B05161042202A92868274B9847019B002B0A
S2140006C000D054E76B79D9090022002904D15A09D1
S2140006D0D2011F498C46624459460B40210099407E
S2140006E091612B681A68137E2342FCD06B79D90976
S2140006F00022002904D15A09D20115498C466244C9
S21400070059460B402100994051612B681B681A7EA0
S214000710224201D005229A622B689C461A68042160
S214000720137E0B42FCD0137E00205B070BD5538B49
S2140007305B0701D50423538363469B79012B00D1C5
S2140007401BE7906AC0B2042122E700204DE7C046AE
S2140007500044004148EB0000657E0000F0B583B021
S21400076004000E00150003790A2B00D9F2E09B0066
S2140007707B4AD3589F468023DB0210E080231B036E
S2140007800DE080235B030AE080239B0307E08023C1
S214000790DB0304E080231B0401E080235B021720B8
S2140007A09E4201D303B0F0BD27686E4B98473B7955
S2140007B0002B00D0D0E001333B716B4B98470623EB
S2140007C06A4613706279D1090023002904D15309BF
S2140007D0DB0166498C4663441F21114001228A4092
S2140007E05A61012269462068614B98476279D109AF
S2140007F00023002904D15309DB015C498C4663447D
S2140008001F21114001228A409A61012D06D0002D39
S21400081063D0D823022D02D0002300E052236A467C
S2140008201370D670330A9370360C56706279D109FD
S2140008300023002904D15309DB014C498C4663444C
S2140008401F21114001228A405A610422694620680D
S214000850474B98476279D1090023002904D15309F0
S214000860DB0142498C4663441F21114001228A4025
S2140008709A612368196801220B7E1342FCD06279C4
S214000880D1090023002904D15309DB0137498C46DE
S21400089063441F21114001228A405A6123681B6865
S2140008A01A7ED20701D505229A62206802680421C2
S2140008B0137E0B42FCD0137E00255B0709D5538BB5
S2140008C05B0701D5042353838379012B07D0956AF0
S2140008D0EDB20121002704200CE020239FE7956A53
S2140008E0ED05ED0DF5E7B379012B19D0956AEDB25C
S2140008F0294219D023681A68137E0B42FCD0137E57
S2140009000B4200D0976226683268137E0342FCD002
S214000910137E0342ECD0538B0342E4D05083E2E7CD
S214000920956AED05ED0DE3E76279D109002300290C
S21400093004D15309DB010D498C4663441F21114045
S21400094001228A409A61A806C00F0001236800228F
S2140009501A7127E7172025E7034B9847052021E75C
S21400096078EB0000E57300002574000000440041A9
S214000970657E000070B582B004000D000668354B39
S21400098098473379002B60D101333371324B984747
S21400099006236A4613706279D1090023002904D120
S2140009A05309DB012D498C4663441F211140012267
S2140009B08A405A61012269462068294B9847627925
S2140009C0D1090023002904D15309DB0123498C46B1
S2140009D063441F21114001228A409A613C236A1E0B
S2140009E095416D422B406A46D37101236A461370C7
S2140009F06279D1090023002904D15309DB01174984
S214000A008C4663441F21114001228A405A6101220C
S214000A1069462068124DA84701226B46D91D2068FA
S214000A20A8476279D1090023002904D15309DB01C4
S214000A300A498C4663441F21114001228A409A616C
S214000A40236800221A71002002E0034B9847052015
S214000A5002B070BDE573000025740000004400413C
S214000A60657E0000F0B583B004000E001500037923
S214000A700A2B00D97FE09B00424AD3589F4680232A
S214000A80DB0210E080231B030DE080235B030AE0FB
S214000A9080239B0307E08023DB0304E080231B0402
S214000AA001E080235B0217209E4201D303B0F0BD15
S214000AB02768354B98473B79002B5ED101333B7155
S214000AC0324B984706236A4613706279D109002391
S214000AD0002904D15309DB012D498C4663441F21AC
S214000AE0114001228A405A61012269462068294B3A
S214000AF098476279D1090023002904D15309DB0104
S214000B0023498C4663441F21114001228A409A6182
S214000B103623002D00D103336A461370D670330A8D
S214000B209370360C56706279D1090023002904D1DF
S214000B305309DB0116498C4663441F2111400122EC
S214000B408A405A61042269462068124B98476279A7
S214000B50D1090023002904D15309DB010C498C4636
S214000B6063441F21114001228A409A6123680022B3
S214000B701A7100209AE7172098E7044B984705203B
S214000B8094E7C046A4EB0000E5730000257400005F
S214000B9000440041657E000030B583B0040005685F
S214000BA01C4B98472B79002B2ED101332B711A4BF7
S214000BB09847AB236A4613706279D109002300294F
S214000BC004D15309DB0115498C4663441F211140AB
S214000BD001228A405A61012269462068104B9847D4
S214000BE06279D1090023002904D15309DB010B499E
S214000BF08C4663441F21114001228A409A61236873
S214000C0000221A71002002E0034B9847052003B02B
S214000C1030BDC046E5730000257400000044004166
S214000C20657E0000002383600360416000207047FB
S214000C3008600A4B1A69002A02D1196104E01A00FA
S214000C409368002BFBD19160054B1B68DB0503D432
S214000C5080225200024B1A600020704700000020DD
S214000C6000E100E010B5012904D01723002909D0BF
S214000C70180010BD00780731064B9847064B5861A0
S214000C800023F5E70078034B9847034B5861002391
S214000C90EEE7C046490D00000004004210B5030010
S214000CA0012903D00020002906D010BD00780731A6
S214000CB0074B9847030003E01878054B9847030056
S214000CC0044A90681840431E9841C0B2EDE7C046FB
S214000CD0490D00000000002010B5012904D017239C
S214000CE0002906D0180010BD00780731054B98473C
S214000CF002E00078034B9847034BDA681043D8604D
S214000D000023EFE7490D00000000002010B50B4B54
S214000D101C690B498A69986802439A60094B8B6183
S214000D20002C05D0206863689847A468002CF9D189
S214000D30024BD9689A688A439A6010BD000000206A
S214000D4000040042FFFF0F0F072804D909180831D6
S214000D50012088407047091801208840FAE7000003
S214000D60064A136A02210B4313620122044B1A70CF
S214000D7019000B781342FCD17047C04600040040AF
S214000D800004004201230370002343708370C37085
S214000D9070470000F0B583B005000E00244B98475E
S214000DA0244B1B68DA070ED55B08012401221A4281
S214000DB00AD05B080134E4B20C2CF8D11E4B9847DD
S214000DC0142003B0F0BD00241A4A11680123A34082
S214000DD00B4313601379013B1371174B984714208C
S214000DE0FF2CEED02C707378022B0AD001A9F37872
S214000DF00B70E71DFFB23800104B98473800104BB9
S214000E009847B3781B04FE22D2031340727812066A
S214000E10C02189040A40134332789206C02109058E
S214000E200A4013430F2214401C436C600020C8E79E
S214000E30E57300000000002025740000358D0000DA
S214000E40A98C000010B5054BDC6800780821044B1F
S214000E5098472040431E9841C0B210BD000400428F
S214000E60490D0000037801331B02F822520113409B
S214000E701F2211400B43034A13814368536000202E
S214000E807047C04600040042002904D008700023C2
S214000E904B7000207047E220FCE7000010B5041EEF
S214000EA004D00068024B98470023236010BDC0465C
S214000EB00DD30000F0B5D6464F464646C0B594461C
S214000EC0002821D08946884680440023134816E02F
S214000ED06D00EDB2013E002E0CD0DF0B5B009BB226
S214000EE02C000C40621E9441E4B2BC42F0D0434059
S214000EF09BB2EDE701229246D144C14505D04A4651
S214000F00117808260125E8E70023624613701B0ABD
S214000F1053701CBC90469946A246F0BD0580FFFF64
S214000F2010B5411C40780238C0B20A18014B9847E9
S214000F3010BDC046B50E000010B5CA780323134096
S214000F4016208870012B03D9E220032B07D010BD92
S214000F501B234B700800064B98470020F7E79306C4
S214000F6002D547234B70F5E727234B70F2E7C046C0
S214000F70210F000010B51B238B70143B4B7008002C
S214000F80014B9847002010BD210F000010B502232A
S214000F908B7005334B700800014B9847002010BD3E
S214000FA0210F000010B541238B703A3B4B700800B0
S214000FB0014B9847002010BD210F000070B582B08D
S214000FC005000478023CE4B201AE320001002000C5
S214000FD0084B984732782B5DE5209A4201D002B044
S214000FE070BD2C1901AB5A7863789A42F7D100206D
S214000FF0F5E7C046B50E000002780023042A01D0AB
S214001000180070474278072A21D0D3B2072B0BD896
S214001010012A1AD0002A1ED0D223032AF0D0043385
S214001020052AEDD0E123EBE70F2A12D0D3B20F2B1F
S21400103007D9F323112AE3D0D2B21F3BFF2ADFD011
S214001040F0E7FA23082ADBD0ECE7D123D8E7D7234A
S214001050D6E7F423D4E70023D2E7000070B50500F6
S2140010600C00002812D0002912D00968002911D0DF
S214001070E2206368002B0AD06878074B9847002860
S21400108005D161682800054B984700E0E22070BD56
S214001090E220FCE7E220FAE7890E0000FD120000DD
S2140010A070B5051E2DD00820174B9847041E11D08A
S2140010B00420154B9847061E20600DD02820124BA2
S2140010C09847606000280CD0210028000F4B9847F6
S2140010D000280DD1200070BD20000D4B984700243D
S2140010E0F8E730000A4DA8472000A8470024F1E79B
S2140010F06068074DA8472068A8472000A847002436
S214001100E8E70024E6E7C046F9D200005D100000DC
S2140011100DD3000010B5E223002803D04068024B30
S21400112098470300180010BD8112000010B5041E79
S21400113013D00068094B98472068094B98472368E6
S2140011405868002804D0074B9847236800225A6046
S2140011502068044B98470023236010BD151100003B
S2140011609D0E00000DD30000F0B5DE4657464E46F5
S2140011704546E0B583B081460F004868244B984743
S214001180041E0AD07868234B9847200003B03CBC66
S21400119090469946A246AB46F0BD4B465A7849461D
S2140011A078681D4B9847041EECD101201B4B9847CE
S2140011B01B4EC02398461B4B9B461B4B9A464B46E2
S2140011C09D1D424600212800D8476B469A1D43467F
S2140011D0138029007868D047041E10D002200F4BD9
S2140011E09847013E002EEAD1CCE728000F4B9847DF
S2140011F0041EC7D128000E4B98470400C2E76B4672
S214001200DC88032CF1D860426041E6300400B9E780
S214001210451200006512000035120000E5230000AC
S214001220E304000075D300003D120000BD0F00006F
S214001230F90F000010B50369984710BD10B5436953
S214001240984710BD10B5040083699847D02800D091
S21400125010BDB738024B9847A36920009847F7E7B8
S214001260E523000010B5C369984704000120024B2F
S2140012709847200010BDC046E52300004068704730
S21400128010B5E223002804D0416A0078024B984744
S2140012900300180010BDC046091E000070B504000B
S2140012A00D004068094B98472B68A3606B68E360A5
S2140012B0AB682361EB6863612B69A361AB6923624A
S2140012C06B69E3612B6A6362002070BDB51D000088
S2140012D010B58AB0040001A9074B9847616801A8B9
S2140012E0A3689847002801D00AB010BD099B636226
S2140012F0E36820009847F7E79D12000010B5002825
S2140013000BD0E223002906D003780B704860080053
S214001310034B98470300180010BDE223FBE7C046C6
S214001320D112000010B50248024B9847002010BDAD
S2140013307C0300202D11000010B582B00400144B71
S2140013401B68002B01D0134B98472000124B984780
S2140013500F4B1860002819D062780023032A02D0A9
S214001360180002B010BD03680133023A0092123230
S21400137000210020094CA047031EF1D1044A126840
S21400138011684A78072082434A70E9E7E123E7E7D5
S2140013907C03002025130000A11000006516000045
S2140013A010B5044B1B68E120002B02D05868024B96
S2140013B0984710BD7C0300204512000010B5029C23
S2140013C0002C08D00324204007D002280DD0012886
S2140013D003D0E22012E0E22010E0D2000720034013
S2140013E01A43029B1A80002008E0C9000720034029
S2140013F00B4312021A43029B1A80002010BD000005
S214001400002A3ED0204B1B685B685B685B78002B2D
S21400141013D1012809D0002803D0022809D0E220E1
S21400142030E05823136000202CE040231360002097
S21400143028E020231360002024E0012809D000289B
S21400144003D0022809D0E2201CE08023136000208D
S21400145018E040231360002014E0072908D9082963
S2140014600AD0E2200F290DD848231360002009E097
S21400147024231360002005E0D0235B0013600020C7
S21400148000E0E2207047C0467C030020F0B5B3B011
S21400149016001D001F4B1B681F68032303406A4687
S2140014A0D0709180012B05D9E224032B22D0200096
S2140014B033B0F0BD142231006B46981D164B98478A
S2140014C069463800154B9847041EF0D1114B196831
S2140014D06846134B9847041EE9D1002DE7D06B46AB
S2140014E09B79222BE3D920226B46D91D28000A4B74
S2140014F09847DCE7830606D5402231006B46981DE8
S214001500054B9847DCE7202231006B46981D024BBE
S2140015109847D5E77C0300203FD30000390F000032
S2140015206911000010B53F239843202A04D0E22317
S214001530402A04D0180010BD3C3B184301E0BF3BD6
S214001540184300230A000021014CA0470300F1E7DE
S2140015508D14000030B5B3B00500124B1B68186838
S21400156000236A46D370938069460F4B9847041E43
S21400157002D0200033B030BD0A4B196868460B4BCA
S2140015809847041EF5D16B469B79232B01D0E624A1
S214001590EFE7002DEDD020226B46D91D2800044B26
S2140015A09847E6E77C030020750F000069110000ED
S2140015B03FD30000F0B5B9B003903EA880C80578C8
S2140015C0002F0AD0224800680668042D16D0E224B0
S2140015D0202D04D0200039B0F0BDE224FAE70E201A
S2140015E002ACA4466044009003981A4CA047041E20
S2140015F0F0D18023039A1A43039209E00E2002AC2E
S214001600A446604400900398124CA047041EE1D103
S21400161006A96B461B7BCB700E2302AA9446634436
S2140016201B888B8030000C4B9847041ED2D1084B89
S214001630196806A8094B9847041ECBD12A00172123
S21400164002AB9C4661443800054B9847C2E7C0464B
S2140016507C030020BD1300008D0F00006911000000
S2140016603FD30000F0B5DE4657464E464546E0B549
S21400167091B0050002911700039300230F93E22414
S214001680022807D9200011B03CBC90469946A246D5
S214001690AB46F0BD02281FD000241A9B002BF1D0C9
S2140016A0E234039B002BEDD00FAA029928002E4BA4
S2140016B09847041EE6D11A9BDB19E2340F9A934230
S2140016C0E0D87B09984620239A4600230026A946A0
S2140016D01D00059757461EE00F29D3D8DCE7434682
S2140016E05B010F9AD31A1F2B17D8059B9B199B08D3
S2140016F007251D401C3F10E0039B981907AB9C462E
S21400170061442200194B98473619202F24D0013502
S2140017101A9BB34224D9202FE1D0EBB24246694649
S2140017200A740A7C019707A9009102994846104C52
S214001730A0470490002815D14346DB005B199B00A8
S21400174000210598984200D9C11A7B1A1A9A941B50
S2140017509C42D1D91C00CFE701239C46E044D7E742
S214001760049C8FE7049C8DE7011400003FD3000023
S214001770B515000030B5B3B003001500E224002A0A
S2140017800AD00F4A126810686A46D370918069467C
S2140017900C4B9847041E02D0200033B030BD084BD7
S2140017A019686846084B9847041EF5D16B469A7927
S2140017B0042AF1D9033AD91D2800044B9847EBE7D1
S2140017C07C030020A50F0000691100003FD3000035
S2140017D0F8B505000C00160000200E4B98470028B0
S2140017E00DD10D4B1B681B681B78032B08D00027F8
S2140017F0002020222100094B9847002803D0F8BD7E
S21400180020274030F5E78030384332002900044B6B
S2140018109847F4E7551500007C03002025150000C6
S21400182075170000192810D903001A3B192B10D978
S2140018300300343B092B0FD93E2810D03F2810D088
S214001840FF23402803D18B7801E04130C3B2180053
S21400185070474730C3B2FAE70438C3B2F7E70B78ED
S214001860F5E74B78F3E70000F0B5DE4657464E4600
S2140018704546E0B585B004008A46161E029333D06E
S214001880002831D0002B2FD00E9B002B2CD003210C
S21400189050466C4B98470D00691E8D4103215046FB
S2140018A0694B98472D18AD000E9BD978002906D0B5
S2140018B08B0725D12800644B984740002D1801352A
S2140018C0029B1B6801939D4220D80023029A136056
S2140018D05346002B00D1ACE0002303930025984626
S2140018E033004646984654E0E2215848584B9847FD
S2140018F0E22005B03CBC90469946A246AB46F0BDF9
S214001900E2215448524B9847E220F2E7ED21524834
S2140019104F4B9847ED20ECE701946A1C93464246ED
S2140019205719207880080E994C4A904738702078CE
S214001930000130221040731C9A4551D9AA1C9146CA
S2140019405F46474463781B0918430E99434A9047FD
S214001950387063789B003C201840B31C9A452FD9FA
S214001960EF1CC144019B9B789B0918430E993B4A88
S21400197090474A46107047440435019B9B783F20A9
S21400198018400E99354B9847387003360334B245E5
S2140019903ED90E9BD9780029BED0002EBCD0039F1E
S2140019A0E81B284B98470029B6D16B1C42460D31E0
S2140019B051550A21D15402353B0002330393ABE75D
S2140019C0EF1CC144CB460E99244B994698475B467C
S2140019D01870474404350E994020C8473870D4E73D
S2140019E05F4647440E991D4B98473870EF1CAB1C5A
S2140019F0434499460E994020184B98474B4618701A
S214001A00474404350E994020144B98473870BCE77D
S214001A104646AA46012D0CD96B1EF25C002A08D158
S214001A20012B05D05A1EB15C002909D11300F7E737
S214001A309A4600235246B354029B1A60002058E789
S214001A409A46F6E769B700005DB60000D0EB0000E6
S214001A50D5D4000060EC00009CEC000025180000C7
S214001A6070B5B0B005000E0014006846064B9847E7
S214001A70320029006846054B984721006846044B0B
S214001A809847002030B070BD411C0000A51C000027
S214001A90311D0000F0B5DE4657464E464546E0B5D9
S214001AA0D5B00B90002A00D1C0E00B009201891837
S214001AB00A910200A8320992604A91465CE0029DB3
S214001AC0019502905846BC462700140002000B25DC
S214001AD0EA4105000626F541554002001336F2415C
S214001AE055404A468A58049E8E59B0464244AD1820
S214001AF0029A02409046019A824346467240AA18CD
S214001B00D318039DAB469B4425000D26F5412200C5
S214001B100B3EF2416A4025005646F5416A4065464E
S214001B207D40254066463E4075405219D218043125
S214001B30019B6546039580256D00A942BFD13D00F7
S214001B406746089B9C4659460C920D940E9510913C
S214001B501190029B1293019B13930F97634605996E
S214001B60079804C91C68A446624404C38342F8D19B
S214001B70069B0A9A9A4259D014A8402294469C443E
S214001B8062466446069202001978D17059789170C0
S214001B9099785170D978117004330432A342F3D186
S214001BA04268816B13000724E34114001225EC41C0
S214001BB06340D20853400268446AA44662449B18B5
S214001BC00A001124E2410C000135EC416240890A0A
S214001BD04A409B180364043044AB9842E0D10B9B08
S214001BE08822904643449C460CAB0593624609986F
S214001BF002CA02C38242FBD10792139A129B019338
S214001C00119B029310980F9B98460E9F0D9B0C9C61
S214001C10002514A9049116218A4661460891BC46FF
S214001C201F0013002900424603924FE755B03CBC04
S214001C3090469946A246AB46F0BDC046D4EC00009E
S214001C4010B50400A82200210D4B98470D4A8823A2
S214001C50E2500D4A0433E2500C4A0433E2500C4A78
S214001C600433E2500B4A0433E2500B4A0433E2508A
S214001C700A4A0433E2500A4A0433E25010BDC04612
S214001C8075D3000067E6096A85AE67BB72F36E3CE3
S214001C903AF54FA57F520E518C68059BABD9831F32
S214001CA019CDE05BF0B5D6464F4680B583B006004A
S214001CB00D001400406840273F1A974200D91700CD
S214001CC0083030183A002900174B98477368E31815
S214001CD03F2B05D8736003B00CBC91469A46F0BD06
S214001CE008239C46B44463460122019361463000B3
S214001CF00E4B9A469847E41BA2099146E919300014
S214001D00D0474A46531C9B0132689446634433606E
S214001D103F231A002240726021009943C9196918AE
S214001D200198014B9847D6E73FD30000951A00006C
S214001D30F8B505000C0040682B68C7182F60FF0038
S214001D4009235B421B1A3F261E40431C6B602B1860
S214001D5080221A72321D093028180021134B98472A
S214001D606B689C466644AB193A0E1A733A0C5A7363
S214001D703A0A9A73320008326A60DF7392092900C1
S214001D80083128000A4B984728008830A83503E019
S214001D9004300434A84208D003230278E2540268D0
S214001DA0120A0260013BF8D2F2E7F8BD75D30000D4
S214001DB0951A00000378F020002B00D070470A4BDD
S214001DC00B600A4B4B600A4BCB600A4B8B600A4B8E
S214001DD08B610A4B0B610A4B4B610A4BCB610023AC
S214001DE00B620020EAE7C046791E000029200000AA
S214001DF0812000002D20000055230000192200003D
S214001E0001230000A923000010B5002801D0E1201E
S214001E1010BD0800014B9847FAE7C046A92300000A
S214001E2010B582B004000F4B1A6801925B680093ED
S214001E30D020042901D002B010BD042201A9200040
S214001E40094B984703000020002BF4D00422694673
S214001E502000054B98470300D720002BEBD007380F
S214001E60E9E7C046D4ED000021D300000168072250
S214001E70CB691A42FCD17047F0B5D6464F46464667
S214001E80C0B582B080460D004C79F020052C05D9EF
S214001E9002B01CBC90469946A246F0BD0194630071
S214001EA01F19FF00514AD11989460A69002A0BDD1D
S214001EB063001C19E4004D4B1C1901322261434695
S214001EC04A461A620020E3E7494E4A4B73600023F5
S214001ED0B36033733376802292033261012252421A
S214001EE0F282F36133622532B354B3620832B354DC
S214001EF00132B3540132B354D73333861E33FF3323
S214001F00B382FA218900A8683B4B984730606B790A
S214001F10052B68D89B00394AD3589F4663001B1987
S214001F20DB003749314A9950314B364ADA61364A36
S214001F301A622E4B9A4604373E00564467003B19F9
S214001F40DB00524699582A4A3000304B98473B19D6
S214001F50DB0053445F6830002D4B98473B680222F5
S214001F6013433B6000231021019842001618F60028
S214001F701E4A944666440A367A8B0A4205D10133D5
S214001F8032889342F8D310237B83184963001A19CA
S214001F90D2008A1868795061130001221A618EE710
S214001FA063001B19DB001B49104A9950C1E7630008
S214001FB01B19DB0018490D4A9950BAE763001B1934
S214001FC0DB001649094A9950B3E763001B19DB008A
S214001FD01349064A9950ACE763001B19DB00114908
S214001FE0024A9950A5E7F02052E7C046B403002005
S214001FF080030020480D00005DB60000DCED000008
S214002000000800420200080002000900B92700008C
S2140020106D1E0000000C004200100042001400423A
S21400202000180042001C00420020704730B585B002
S2140020300D0014000F4B984701A903795B080B802D
S2140020404D6000230B724B728B7203332B7001347E
S2140020504C8043795800C018C0000430064B18184E
S214002060064B98470300F0205A1E93415B421840E7
S21400207005B030BD7D120000B4030020D12D000055
S214002080F0B5D6464F464646C0B584B0894690461B
S2140020902D4B98470500846A43461B889A4601AB39
S2140020A0027952081A8001225A804A460292002279
S2140020B01A725A729A7243461A80ED205346002BC3
S2140020C005D104B01CBC90469946A246F0BD01233B
S2140020D01E4F1F4E0DE06B795800C018C00004302C
S2140020E0381801A9B047F023421E904140420340F1
S2140020F0013C002C1DDD002BEDD14B461B78E42067
S214002100032BDED99BB209309A45DAD301A9013BED
S2140021104B804B4601334B606B795800C018C000AB
S21400212004300A4B18180A4B9847002805D0F020B0
S214002130C7E7002BE1D0D8B2C3E74B461B78424630
S21400214013800020BDE7C0467D120000B4030020C7
S214002150BD2D0000F0B5DE4657464E46C0B582B0EF
S2140021600191264B98474679254B99467500AC1940
S214002170E400043423004B44AF19FF004F447C684E
S214002180009318001F4A93469047832323752376AF
S214002190236802229246934323601B4C1B4BE38228
S2140021A0FA21890001981A4B98472060AD19ED0076
S2140021B04A46A9582200009C2000164B98477D6886
S2140021C02000D8472B68524613432B60002310216B
S2140021D072009619F6000A4A944666440A366A8BD6
S2140021E00A4205D1013332889342F8D310236B8319
S2140021F002B01CBC91469A46A346F0BD7D12000074
S214002200B40300206D1E000080030020102700008D
S2140022105DB60000B9270000F0B5CE46474680B54B
S21400222087B0040001902E4B98470600876A8368A3
S21400223099462C4B994503D0190020002A4B984705
S2140022400022002302A90A804A8005AC03940B7280
S2140022504B728B7273795800C018C0000430234B41
S2140022601818234B9847B08C224B984733795B0855
S21400227002AA13800423538003947C1E002F29DDBA
S2140022801A4B98461C4F73795800C018C00004308B
S214002290404402A9B8470500013C10D30028F2D1FB
S2140022A0104B994511D0494601980F4B9847F0209E
S2140022B0002D0AD007B00CBC90469946F0BD094BDD
S2140022C09945F4D0EFE70125EDE7042105A80B4B6F
S2140022D09847EFE7034B9945F5D1F020EAE7C0466B
S2140022E07D120000A086010055210000B4030020E6
S2140022F0D12D0000CD230000BD2D0000211E0000C2
S21400230000B585B0104B984703795B086A46138082
S2140023100123538003AA0192002369460B724B7275
S2140023208B720233137043795800C018C000043013
S214002330064B1818064B98470300F0205A1E934188
S2140023405B42184005B000BD7D120000B4030020BB
S214002350D12D000000B585B0104B984703795B0877
S2140023606A4613800123538003AA0192002369461C
S2140023700B724B728B720123137043795800C0188E
S214002380C0000430064B1818064B98470300F02090
S2140023905A1E93415B42184005B000BD7D120000F6
S2140023A0B4030020D12D000010B5041E04D003692C
S2140023B0013B0361002B01DD002010BD0430024B01
S2140023C0984700232361F7E7812A000010B500280C
S2140023D003D10120024B984710BD014B9847FBE7FD
S2140023E00D38000010B5002803D10120024B984795
S2140023F010BD024B9847FBE70D3800003938000047
S214002400002814D00268002A11D0C388002B0ED0F2
S214002410818801398B420ADAD118013909782E29C8
S21400242006D07B2903D0591CC1802C21D15470477B
S214002430591CC1807B21D154F9E7000030B585B026
S214002440041E27D0002927D0E220002A01D105B09B
S21400245030BD2160A2800023E38003920F4B0093DF
S21400246003AB0A001B210E480E4DA8470028EED1EC
S214002470E388039A944663449BB2E380A288013AB9
S214002480934201DBE420E2E72268591CE1802E211A
S214002490D154DCE7E220DAE7E220D8E71400002097
S2140024A00CEE000069180000F0B5CE4600B586B008
S2140024B0041E039100D197E00368002B00D195E03D
S2140024C08288E226002A04D1300006B004BC914679
S2140024D0F0BDC788002FF7D0DA19013A12787D2AA6
S2140024E007D07A1CC2807D22DA55C788002F00D11B
S2140024F078E023681A78013300252E2A70D001353B
S214002500ADB2BD4206D201335A1E12782E2AF6D13B
S2140025100135ADB27B1B9946180040308000032180
S214002520344B9847A3880330DA1BE4269042CBD876
S21400253022685119D81B10184A462F4B9847A38873
S214002540059320684219E1885B1AC0182B4B00934C
S21400255005AB49462A4EB047061EB5D1059B9C469C
S2140025606544A9B2E180A3881A00583AE43691423D
S214002570AADA203B2268D2182068224B9847C6B2B7
S214002580002EA1D12368A1880A00403A9A18203963
S214002590591803981C4B9847061E00D094E7E3880A
S2140025A05A1CE2802E222168CA54A088E288831A28
S2140025B0059323689A1840381818104B009305ABFB
S2140025C040210F4DA847E388059A944663449BB282
S2140025D0E380A2889A420BD922680021D15473E77F
S2140025E0002595E73D0095E7E2266DE7E2266BE7D6
S2140025F0E42669E75DB6000051D300001400002011
S21400260069180000611A0000D1170000F0B583B009
S21400261004000D001600002826D00368002B25D0E5
S2140026208388E220002B01D103B0F0BD00291FD023
S214002630002AF9D020000F4B9847E088A7883F1A59
S21400264023689C46604400962B000B4A39000B4DCD
S214002650A8470300E120002BE6DD9F42E4DDE0888A
S214002660C318E3800020DFE7E220DDE7E220DBE7B7
S214002670E220D9E70124000000EE000095D7000014
S214002680F0B583B004000D001600002824D00368BF
S214002690002B23D08388E220002B01D103B0F0BDAD
S2140026A00029FBD020000E4B9847E088A7883F1AE9
S2140026B023689C46604400962B000A4A39000A4D5F
S2140026C0A8470300E120002BE8DD9F42E6DDE08816
S2140026D0C318E3800020E1E7E220DFE7E220DDE741
S2140026E001240000F4ED000095D700000368987AF6
S2140026F0C009704770B5040006684379002B0ED1F8
S214002700124B7380124D2000A8470028FBD1237976
S214002710002B17D00020012B00D1306970BD7388C4
S2140027205B04F4D473888022D201134373807388C9
S2140027308022120213437380054D2000A84700280C
S214002740FBD1E4E7308A80B2E8E7C0460080FFFFAE
S214002750ED26000010B5144B1A681468D18A938AC7
S2140027601940207AE379034058B2002806DBD807E0
S2140027700FD5CB070AD40123237210BD4B0702D412
S21400278080232372F9E713699847F9E79368984717
S214002790F1E79B07F1D58B0702D402232372ECE7FF
S2140027A0D3689847F9E7C046EC1300200168072273
S2140027B0CB691A42FCD17047F0B5D6464F4646461E
S2140027C0C0B58AB006000F00140031600800974BB1
S2140027D09847974A116A851C0123AB400B43136246
S2140027E009A9237B0B701430C5B22800914B98477B
S2140027F02800914B9847207B0021904B98473B68D8
S2140028001C209B0705D50AB01CBC90469946A246DC
S214002810F0BD3B681738DB07F5D414233B603368FC
S21400282098461800814B98470500802308AA137025
S21400283000235370012208A98A70CB70E069276ACA
S214002840002800D1AFE008AB1870022308AA537026
S214002850000CC0B211007A4B9847002F00D1A7E0B9
S21400286008AB1F70022308AA53703F0CF8B2110081
S214002870734B9847A38AF380E38A3381237E8022B2
S214002880002B04D16F4B9B789B07DB0FDA01A16806
S21400289023690B4313432422A25C002A02D0802221
S2140028A0D2051343A26A13432C22A25C002A03D14A
S2140028B080229204914202D18022120513432D22D7
S2140028C0A25C002A02D08022120413432E22A25CAD
S2140028D0002A02D08022D2031343424612681343D2
S2140028E04246136080235B00536028001430C0B259
S2140028F0554B98470790FA239B0022685A43914607
S21400290063689A46514DA847009001914B4658007F
S214002910A84702900391208EA847049005914C4F3B
S2140029204C4A4D4B00980199B84702000B0004989A
S2140029300599B847494E0022494BB0470490059187
S2140029404846A84702000B0004980599B8470200BD
S2140029500B00444D00980199A847029A039BB04784
S2140029600022414BA847029A039B404DA847404B84
S2140029709847050080239B04A2689A421ED0030055
S2140029804020FF2D00D93EE700240020FF251D40F3
S214002990240625430004FF231B0418400543434632
S2140029A0DD6000202FE700214046324B98474AE77B
S2140029B0012140462F4B9847070051E7FA26B600FC
S2140029C053465E430098019902000B00234CA04733
S2140029D00090019130001D4B98470022264BB847C7
S2140029E002000B0000980199204CA04700221E4BC5
S2140029F01C4CA0471E4B9847041E0CD0310007986D
S214002A001E4B98470238001B2B00FF2D0CD8FF28C2
S214002A10BCD94020F7E67100481E079B9C466044E0
S214002A20164B98470138EFE74020ECE6BD790000EA
S214002A3000040040358D0000A98C0000F9770000E6
S214002A402D8E000000200041518D000035D2000080
S214002A50A1C6000095D626E80B2E113E19BA000036
S214002A6000002440A1CB00000000F03F39C0000069
S214002A70CDD1000045780000000008405DB600009B
S214002A80F8B504000768084EB04725682000B04730
S214002A9083232B752B762B68022293432B60200012
S214002AA0B04701233B60F8BDAD27000003681A7EDF
S214002AB0920707D502221A765B8B9B074120DB170D
S214002AC0184070475A8B520706D55968C0229202A2
S214002AD00A435A601820F4E70020F2E730B502688F
S214002AE0002301240225117E21420BD1117E2942AA
S214002AF006D101339BB201899942F4D8122002E034
S214002B00002000E0002030BD10B504686268802315
S214002B10DB02134363606162024B9847012323760E
S214002B2010BDC046DD2A0000F0B5DE4657464E46CC
S214002B304546E0B583B00600894605684C882B6894
S214002B401B01DB0F9A464B7A002B2BD16B68584A39
S214002B5013406B604B461B7A002B27D14B461B88D5
S214002B605B004A46527A92031343012213436B6278
S214002B703000504B984701905346002B03D04B46ED
S214002B805B88012B3BD06B68494A13406B60019B06
S214002B90002B3AD0019803B03CBC90469946A2461A
S214002BA0AB46F0BD897A444B9847CFE74B461B8827
S214002BB05B004A46527A9203134380221202134362
S214002BC06B6230003B4B984701906B68384A134065
S214002BD06B600028DED13000384B98470190002803
S214002BE0D8D14B461B881B0A782213435B004A4603
S214002BF0527A920301210A4313436B62B8E76A686C
S214002C008023DB0213436B60C1E730002B4B9847F1
S214002C1001900028BED1013CA4B28046284B9B46BA
S214002C2015E0012C20D03000264B984743465F1C09
S214002C30BFB22823EB5C4A465268414653543000E4
S214002C401C4B9847013CA4B2002815D1B8465C45F9
S214002C5014D06B8B9B0627D5F37A002BE3D0534614
S214002C60002BDED1002CDED16A688023DB02134302
S214002C706B60013CA4B2EAE7B8460190B37A002B39
S214002C8009D130000F4B98472823EA5C4B465B6817
S214002C9041465A547EE730000A4B98476A68C0237C
S214002CA09B0213436B60ECE74123019372E7C04637
S214002CB0FFFFFBFFDD2A0000092B0000AD2A000005
S214002CC0FFFF0000AD270000F0B5DE4657464E4633
S214002CD04546E0B583B006000F0005684C88324BC9
S214002CE098477B7A002B1DD16B68304A13406B6087
S214002CF03B7A002B1BD03B885B007A7A9203134307
S214002D008022120213436B623000294B98470190D1
S214002D10002813D0019803B03CBC90469946A246C2
S214002D20AB46F0BDB97A3000224B9847DCE73B88CB
S214002D305B007A7A920313436B62E5E730001E4B22
S214002D409847031E0190E5D1A046002420339946FB
S214002D50154B9B46164B9A46444515D06B8B4A46F8
S214002D6013421DD03000D8477B681A5D2823EA54EA
S214002D703000D047002806D16B8B01345B07EBD5BB
S214002D801E23019300E00190B37A002BC2D03000DE
S214002D90054B98476A68C0239B0213436B60B9E7EC
S214002DA041230193B6E7C046AD270000FFFFFBFFB7
S214002DB0DD2A0000092B0000AD2A000010B5012313
S214002DC08372C372014B984710BDC046292B000082
S214002DD010B501238372C372014B984710BDC046DD
S214002DE0C92C000030B585B001AA0B4B32CB32C2DD
S214002DF0019B98420DD0029B984208D00023039A6C
S214002E00824202D0180005B030BD023302E0012332
S214002E1000E00023DBB2F5E728EE0000F0B587B04F
S214002E2004000D0016000800854B9847070005AB08
S214002E301B221A7001325A709A7003AB802212015C
S214002E401A80802252015A80802292019A800023A2
S214002E50A360E36023616361237663768200794B27
S214002E60D4502560B378082B06D023712B88052014
S214002E70DB0705D507B0F0BD1720FA07FAD5F4E74B
S214002E80EB7B1730DB06F5D42B889B07F2D4337C1C
S214002E90002B79D1337F002B00D081E06A49086A85
S214002EA07A0003ABD35A03430B62B378082B00D1E6
S214002EB086E001A933780B7005ABDF5D3800634B05
S214002EC098473800624B98473189B3880B43B178EE
S214002ED0B279114319437378002B02D080231B016B
S214002EE019432268D37B5BB2002BFBDB2980717B06
S214002EF04B1E99418900B37B002B01D00123194357
S214002F002268D37B5BB2002BFBDBFF232B710029EF
S214002F1005D02268D37B5BB2002BFBDB6971B17AEC
S214002F20F37A002B01D010231943337B002B01D0FA
S214002F30202319432268D37B5BB2002BFBDBA971ED
S214002F402268D37B5BB2002BFBDB2379042B3FD0BC
S214002F50082B5ED01720002B00D08BE7D37B5BB20C
S214002F60002BFBDB338D2B822268D37B5BB2002BDE
S214002F70FBDB738D2B832268D37B5BB2002BFBDBE2
S214002F80B38D6B83002075E702A901238B700022A6
S214002F90CA70327E0A704B70307D2E4B984779E7A8
S214002FA002A901238B700022CA702432B21812784C
S214002FB00A704B701F33F3181878264B98476DE746
S214002FC0086A7A1C520003ABD35A03430B6270E7BD
S214002FD0D37B5BB2002BFBDB2823F35C2B742268CD
S214002FE0D37B5BB2002BFBDB2923F35C2B752268BB
S214002FF0D37B5BB2002BFBDB2A23F35C2B762268A9
S214003000D37B5BB2002BFBDB2B23F35C6B760020C1
S21400301030E7D37B5BB2002BFBDBB36A2B61226805
S214003020D37B5BB2002BFBDBF36AAB612268D37BFE
S2140030305BB2002BFBDB336BEB6100201AE7C0466C
S214003040E52D0000F014002000040040358D00003F
S214003050A98C00002D8E0000F0B5DE4657464E4681
S2140030604546E0B583B0C44B1F683D682B78DB0946
S21400307014D12E8CB6B2002E00D02DE2AE8BB6B296
S214003080AB235B00FB5AAA225200BD5A1D403540B6
S2140030900024BA4FB84B9946984608E22B8C9BB250
S2140030A0002B00D13DE1288C80B2B54B9847040038
S2140030B01F2800D935E1030008335B01ED18ED79D0
S2140030C0EDB2AB0741D0AF4A012383401168994364
S2140030D01160030008335B013A6894466344032298
S2140030E0DA713B18AE331B78DB072ED5A64B18706B
S2140030F03A68030008335B019B5C9B079B0F012B20
S21400310000D194E04201A14B9B185A681201920C20
S21400311090B29D494A805A689204920C8A805A68F6
S2140031209B490A405A60002807D16201974B9B18BA
S2140031305B689B049B0C944A53808F4B1868A31CB7
S2140031401B01C3185B68904998476B071FD58A4BCD
S21400315018680268230008335B019B5C9B065B0FC4
S214003160022B75D0230008335B019B5C9B065B0F2C
S214003170032B00D19EE06201844B9B1800229A72BA
S21400318003682200083252019B180422DA712B07CA
S21400319015D57C4A0123A340116899431160764BEC
S2140031A01868230008335B010268944663440822CB
S2140031B0DA710319AE331B789B0700D594E0EB0653
S2140031C015D5704A0123A3401168994311606A4BD4
S2140031D01868230008335B01026894466344102293
S2140031E0DA710319AE331B785B0700D58AE0AB06AD
S2140031F000D42FE1634A0123A3401168994311606C
S2140032005D4B1868230008335B01026894466344EC
S2140032102022DA710319AE331B781B0700D419E19C
S21400322059490C7024010419236B984712E1420196
S214003230564B9B185A689204920C53494A805A6817
S2140032401201920C8A805A68920B92035A6074E7B5
S214003250230008335B019B5C9B079B0F012B81D1EE
S21400326061014A4B5B1808339B78DB0700D479E78B
S214003270444A0123A3401168994311606201434BFD
S2140032809B1800229A72230008335B01026894465A
S21400329063440422DA710319AE331B789B0700D40B
S2140032A075E739490C7010234B702301C3189B6ACD
S2140032B098476CE7230008335B019B5C9B079B0FDA
S2140032C0012B00D057E76201304B9B1800229A7200
S2140032D0230008335B010268D2180421D17102680A
S2140032E0D31810225A7152E727490C706201274BF7
S2140032F09B18DB891F2213404B702301C3189B6A5F
S21400330098475CE720490C706201204B9B185B686D
S2140033101B019B0C4B802301C318DB6A00219847D6
S21400332065E7AC8BA4B2630738D50423AB83154B93
S2140033301D6801230120102602E00133082B29D046
S21400334002009A401542F8D039681A000832520135
S214003350525C9206520F032AEFD11A00083252012D
S214003360525C9207920F012AE7D11A0008325201E6
S21400337089180E71E1E7C0464404002034EE0000D0
S21400338085B900005404002058040020F0130020E3
S214003390FF3F00F09D33FB5CDB0762D423070BD5B1
S2140033A00022AF4B1A60AF4B18680823026893835D
S2140033B09D33C35C9B0758D4630608D5A94B186891
S2140033C04023026893836533C35CDB0650D4A306B0
S2140033D008D5A44B18682023026893838533C35C02
S2140033E01B0748D4E30608D59E4B186810230268CE
S2140033F093839533C35C5B0740D423060BD500222A
S214003400974B1A60974B186880230268938325337E
S214003410C35C9B0635D4E3050CD50022904B1A609E
S214003420904B186880235B00026893835B3BC35C09
S2140034305B0629D4A3050DD50022894B1A60894B5B
S214003440186880239B00026893835C3BFF3BC35C49
S2140034507F2B1CD803B03CBC90469946A246AB4690
S214003460F0BD7B683800984798E783689847A3E7DD
S21400347043699847ABE703699847B3E7C36898473B
S214003480BBE783699847C6E7C3699847D2E7036AEC
S2140034909847DFE723002E339B00424612689B586E
S2140034A071494246106898470134072CD2D0630011
S2140034B0DB5B334203D04A461268126893832B4282
S2140034C0F2D0062CE6D1694B1B891B0980225200DC
S2140034D01340654A1360DDE73C005934FF3400238F
S2140034E0012294465F329146503A92460D3A9346F0
S2140034F0B8462F00C3E02A003D00474690465B01D1
S214003500ED180823FF33EB5C5B0615D54022082335
S214003510FF33EA54883BFF3B42461343544A9371B9
S21400352060230B4296D0019B1B01FB18E0331B68FF
S2140035304F49380098478DE70823FF33EB5C9B061E
S214003540EED520220823FF33EA54494B42469A71AF
S214003550E6E73D004746019A130008335B01ED1885
S2140035601023EB71BB186133FF331B78DB0600D4E6
S21400357070E7100052013D4B9B185B689B049B0C48
S2140035803B490B800301FB18DC331B684046984719
S21400359060E72A003D00474690465B01ED18082389
S2140035A0FF33EB5C9B071ED502220823FF33EA5449
S2140035B02F48883BFF3B424613438371019B5A01C9
S2140035C02A4B9B1810335B689B049B0C43808B072D
S2140035D000D13FE7019B0D331B01FB185B682449B4
S2140035E03800984736E70823FF33EB5CDB07EED559
S2140035F001220823FF33EA541D4843468371019B8A
S2140036005B011A4AD21853689B049B0C03805368CC
S2140036101B019B0C8380DAE70822FF329A5C520774
S21400362079D504200822FF329854019842010F4BA6
S2140036309B189B7A9B0705D50C4B9B189A7A022001
S21400364082439A720A4B42469A71019B08335B0189
S2140036503A6894466344DB79DB075CD5FAE6C046F5
S214003660540400204404002048040020F0130020E6
S2140036704C04002001330134082B00D1EAE6DDB209
S214003680019332001A4161461142F3D01A00083203
S2140036905201BA18D279D2B2217A1140207801406C
S2140036A04846104200D026E75046104200D050E769
S2140036B05846104200D06CE70C201042DAD02A00A0
S2140036C03D00474690465B01EB180822FF329A5CA5
S2140036D01207A1D504380822FF32985401984201F7
S2140036E0134B9B189B7E9B0705D5114B9B189A7E08
S2140036F0022082439A7680235B42424613430D4A59
S2140037009371019B08335B013A6894466344DB7906
S2140037109B0700D59EE60C230B4200D19AE6019B40
S2140037201B01FB18D8331B6802493800984791E6FE
S214003730F01300204C04002070B58000164BC458CF
S21400374023689D7B227E637E13401D40EB0706D4D4
S214003750AB070BD4EB0610D4AB0615D470BD200017
S214003760A3689847012322689373F1E72000E36873
S2140037709847022322689373ECE720002369984752
S214003780102322689373E7E720006369984723684D
S21400379020229A73E2E7C046F014002010B50020FD
S2140037A0014B984710BDC0463937000010B50120C0
S2140037B0014B984710BDC0463937000010B50220AF
S2140037C0014B984710BDC0463937000070B5002041
S2140037D0084B98470500084CFA218900A047074B7C
S2140037E0186007492800A047064B18600522064BBC
S2140037F01A6070BD1D8C00005DB600001800002029
S21400380040420F001C00002010E000E030B5084BDE
S2140038101C68084A002580214902013807D3002C7D
S214003820FBD05460956013680B42FCD0F5E730BDC2
S2140038301C00002010E000E030B5084B1C68084A69
S214003840002580214902013807D3002CFBD05460A4
S214003850956013680B42FCD0F5E730BD18000020D9
S21400386010E000E010B5034B1B68002B00D0984713
S21400387010BDC0466004002070B582B00023154A13
S214003880136001AC01256570A370257021001B2014
S214003890114EB04721001C20B04721002820B04719
S2140038A00E4B802252055A61802212055A610C4B3B
S2140038B01B681D4203D00A4B1B689B0701D4094BAB
S2140038C098470122084B1A70BFF35F8F62B600203C
S2140038D002B070BD600400205D7600000044004128
S2140038E010E000E0CD3700002200002000B583B0D5
S2140038F001A900230B708B704B70064B802252057B
S2140039005A61802212055A612920034B98470020ED
S21400391003B000BD004400415D76000070B5441E53
S214003920002804D0024D0120A847013CFBD270BD00
S21400393039380000F8B5074C80277F056761802579
S2140039402D0565610120044EB047A7610A20B047E7
S214003950A561F8BD004400411D39000010B584B0D3
S2140039600E4B186001AC20000D4B9847292301939D
S21400397000236360013323720133E37221000920C0
S214003980084B9847002209210748084B9847002112
S2140039900920074B984704B010BDC04660040020BD
S2140039A0D1750000E5750000653800008D740000D4
S2140039B0B974000010B5002804D100210920044B7A
S2140039C0984710BD00210920024B9847F9E7C046EA
S2140039D0D9740000B9740000F0B5DE4657464E466E
S2140039E04546E0B583B007000E00140000226B4683
S2140039F0DA7100290CD0002C68D006204042002F37
S214003A005AD100239B46013398466B46DF1D09E0DA
S214003A10002858D0002C5CD001239B4600239846F3
S214003A206B46DE1D01222C492C482D4B98472B4B0C
S214003A309A460125042199465A4653425A419346CE
S214003A40387853461B681A7E2A42FCD01A7E2A42D1
S214003A50FCD098621A7E0A42FCD04A469279944676
S214003A6006E0604601280DD0986AC0B2002A0DD044
S214003A701A7E0A42FCD0588B00220842F1D05983A5
S214003A801E32EEE7986AC005C00DEFE73070013CC5
S214003A90A4B25E4443465A425341FF18002CCFD18D
S214003AA00E4B196802220B7E1342FCD000220A49F4
S214003AB00A480B4B9847002003B03CBC90469946FA
S214003AC0A246AB46F0BD0F204042F5E70F2040422D
S214003AD0F2E70F204042EFE7FC140020001500201C
S214003AE0717D000030B591B0304C0E23237000235A
S214003AF06370A37001A901224A708B700A700E20B1
S214003B002B4B98472278D1090023002904D153096A
S214003B10DB0128498C4663441F2111400122100016
S214003B208840986102AC2270002303930493C0215E
S214003B308903059123746374A274E2742375233297
S214003B40A354183A002108A81B4B98471B4BA362A6
S214003B501B4BE36201235B4223631A4B63631A4BDE
S214003B60A361220019491A481A4B984700281AD10F
S214003B70174D2C682000184B98471F2318401E3BF3
S214003B808340164A13602A68D369002BFCD1236849
S214003B90022213432360124B98470120114B98478B
S214003BA0002011B030BD06204042FAE7FC14002089
S214003BB05D7600000044004175D3000002000C0052
S214003BC002000D0002000F00001BB70000100042AC
S214003BD000150020C57A0000357A000000E100E0FC
S214003BE0353900001D39000010B5032806D10A89B2
S214003BF04B6808681900094B984710BDB822520058
S214003C0007490848084B98470848094B98470D202D
S214003C10084B984701204042EFE7C046D9390000DC
S214003C2044EE000054EE0000D5D4000068EE00001C
S214003C30F1D5000009D5000030B583B001AB0022F5
S214003C401A709A705A70144B9847144D2C682000BE
S214003C50134B98471F2318401E3B83408022114970
S214003C608B502A68D369002BFCD18F3323752376BB
S214003C70236802229343236001A90C200A4CA04724
S214003C8001A90F20A04701A90D20A04701A90E20D9
S214003C90A047002003B030BDED380000001500201E
S214003CA0357A000000E100E05D760000002A06D0CC
S214003CB082180B780370013001319042F9D17047B9
S214003CC0002A04D08218017001309042FBD1704760
S214003CD003000278002A07D00020013080B20133AA
S214003CE01A78002AF9D170470020FCE7024AD378F8
S214003CF00133DBB2D37070473C15002070470000DC
S214003D0000B583B000220A4B9A700120094B9847F1
S214003D1001A90948094B9847002801D003B000BD07
S214003D200221019B194301910348054B9847F5E78B
S214003D303C150020B5390000701000001D5A000028
S214003D40295A000010B50C4B9B780020002B0DD193
S214003D50094B5B78002B03D1074B1B78002B06D151
S214003D60054A53780133DBB25370002010BD034B75
S214003D7098470028F4D0F9E73C150020D9550000F4
S214003D80054B5B78002B04D0034A5378013BDBB22B
S214003D90537000207047C0463C15002010B50B4BF2
S214003DA05B78002B04D0094A5378013BDBB2537092
S214003DB0064B5B780020002B03D1044B1B78002BAE
S214003DC000D110BD024B9847FBE7C0463C150020CB
S214003DD071550000F0B5DE46574680B589B083467B
S214003DE08A460192009310AB80CB1E8812AB1D88CA
S214003DF007AA7F230B4053701070002F42D0330069
S214003E000833EB185380724B07AA52889A4200D99F
S214003E10CDE0704B9847041E00D0BBE0002305930E
S214003E2002AAD3800493049B5A461A430492049A27
S214003E3053461B0213430493049A07AB5B881B0488
S214003E401343049304996448644B9847041E54D162
S214003E5000230493049B02221343049304996048AE
S214003E605E4B9847041E48D10022059202ABDA80CA
S214003E7006331B889BB25B4A934246D85A4C5B4B30
S214003E809A4614E0009B083307AA5380BBE701203C
S214003E90D047049B9B0728D502AB9A1DDB880133CD
S214003EA09BB2138013889BB24E4A93422DD804A926
S214003EB04B48A047002828D102AB06331B889BB28C
S214003EC0F422FF329342E4D902AB06331B889BB23E
S214003ED001329342DBD84648464B98474648474B04
S214003EE098470D20464B9847D1E705A945483E4BD5
S214003EF09847041E09D000230593434B984720009B
S214003F0009B00CBC92469B46F0BD059B002B3CD0EE
S214003F10059B06930698082207A93C4B9847041E63
S214003F20EBD1069B08330693019B002B0BD006981B
S214003F30009A1900354B9847041EDED1069B009A5E
S214003F40944663440693002F0ED0069B009AAD1A43
S214003F50ED1806950698320039002C4B9847041E3B
S214003F60CBD1069BF3180693059B9B000493049BFA
S214003F7002221343049304992548184B9847041EBD
S214003F80BBD1244B98470400B9E7224B984703243B
S214003F906442B4E7CB2252001F492048154B98478D
S214003FA01F48164B98470D20154B9847A7E7CE227B
S214003FB05200194919480F4CA04707AB5988044AC4
S214003FC01848A0470D200E4B98470124644296E7F8
S214003FD03C060000453D00008C100000295A0000F9
S214003FE078100000E70300001D5A00001D3900008D
S214003FF0F4F10000D5D4000000F20000F1D5000076
S21400400009D5000000041500813D00009D5A0000FF
S2140040106C1000009D3D00009CEE000054EE000079
S21400402010F2000030F20000F0B5DE4657464E466D
S214004030C0B586B00022D84B1A71002699469A461B
S21400404049E1D54B059A9A605A46DA60042204A9DB
S2140040500598D24B984704006B465B8A9BB26A462B
S2140040605382002835D104AB5B889BB29B4505D0B4
S21400407004AB5B885A46D31A042B37DC04AB1B7898
S214004080012B49D004AB1B78022B7BD004AB1B78EA
S214004090042B00D193E004AB1B78062B00D1ABE0D9
S2140040A004AB1B78072B00D1C3E004AB1B78052BB1
S2140040B000D1DAE084229200B949BA48BA4B984750
S2140040C0BA48BB4B98470D20BA4B98470624644223
S2140040D023E1EB225200B249B248B34B9847B648A8
S2140040E0B34B98470D20B34B984716E1EF2252008A
S2140040F0AB49AC48AC4CA04704A94A8892B20B78AE
S214004100DBB2497800915946AC48A0470D20A94B30
S21400411098470624644200E19F4B1B69002B24D07D
S2140041209D4B1B6904AA5078C0B25188059A083284
S214004130083989B29847984B9B78002B00D1CAE083
S2140041409F4A97499748984CA04704AB1978C9B23C
S2140041505A78D2B29B48A0470D20964B98479A4B68
S2140041609847041E00D0D8E0B5E0EA22FF328C491A
S2140041708C488D4B984795488D4B98470D208D4B16
S2140041809847D8E7844B5B69002B0BD0824B5B6962
S21400419004AA5078C0B25188059A0832083989B204
S2140041A09847C8E7F82252007D497E487E4B9847DC
S2140041B087487F4B98470D207E4B9847BBE7764B4A
S2140041C09B69002B0BD0744B9B6904AA5078C0B235
S2140041D05188059A0832083989B29847ABE7F82221
S2140041E0FF326F496F48704B98477A48704B984734
S2140041F00D20704B98479EE7674B5B6A002B0BD0F1
S214004200654B5B6A04AA5078C0B25188059A08329A
S214004210083989B298478EE7FF2252006049614804
S214004220614B98476C48624B98470D20614B984706
S21400423081E7594BDB69002B0BD0574BDB6904AA8F
S2140042405078C0B25188059A0832083989B2984722
S21400425071E7624A52495348534B98476048544B5B
S21400426098470D20534B984765E74B4B9B6A002BAE
S2140042700BD0494B9B6A04AA5078C0B25188059A65
S2140042800832083989B2984755E783229200444994
S2140042904448454B98475348454B98470D20454B57
S2140042A0984748E7504A3E493E483F4B98474F4854
S2140042B03F4B98470D203F4B9847022464422CE022
S2140042C04B4A37493748384CA04703994948A047D6
S2140042D00D20384B98474B46DB78002B00D1AEE0DC
S2140042E053461B79002B00D0A9E00020424CA04783
S2140042F0294AD378013BDBB2D3700120A0470425BE
S2140043003E4F1AE03E4A26492648274B98473D48E6
S214004310274B98470D20274B9847002D00D181E06A
S214004320394A3A491F48204EB0472A0021003848EB
S214004330B0470D201F4B9847013D03A93548B847A5
S2140043400400061EDED10399CB07B9D50123994395
S21400435003913048304B9847041EDED101220E4BA5
S2140043609A70039B9B041B0D9B469BD000230593D2
S21400437005A92A48214B9847041E00D161E6CE22A3
S214004380FF3207490748084B98472548084B984787
S2140043900D20084B9847C0E73C150020355A000012
S2140043A0A8EE000054EE0000D5D4000024F0000073
S2140043B0F1D5000009D5000000EF000018EF00005E
S2140043C0160200003CF00000013D000058EF00001F
S2140043D078EF00009CEF0000BCEF00000502000034
S2140043E0E0EF000004F000001D02000068F000008E
S2140043F0250200007CF00000B53900001D5A0000C0
S2140044002D02000098F000006B020000B0EE0000E5
S21400441004F1000070100000295A0000841000000B
S214004420DCEE0000094A0A490A480B4DA84721005D
S2140044300A48A8470D200A4B984726004BE730004D
S21400444006B01CBC91469A46A346F0BD6702000023
S214004450B0EE000054EE0000D5D40000BCF0000022
S21400446009D5000070B514001D00002803D00029EF
S21400447001D0002A13D1002D02D0284B984770BDDA
S214004480A322920026492748274B98472748284BBF
S21400449098470D20274B98470C204042EFE7264BC5
S2140044A0DB689A421AD8244B9B68984227D3861812
S2140044B0214A9368D2689B189E4220D822001F4B40
S2140044C098470028DBD11C4A9368D2689B189E4206
S2140044D001D0002DD3D0114B9847D0E7A5229200EB
S2140044E00F491048104DA847134BDA6821001448AE
S2140044F0A8470D200F4B98470C204042BFE7114AB3
S21400450007490848084B98470F48094B98470D201D
S214004510084B98470C204042B1E7C046013D0000DA
S214004520C0EE000054EE0000D5D400003CF10000C0
S214004530F1D5000009D500003C150020355A0000D2
S2140045405CF100009A020000A4F1000070B50400BF
S21400455007281FD88300164AD3589F46154B596123
S214004560002070BD134B19610020FAE7114B9961CA
S2140045700020F6E70F4B19620020F2E70D4B596258
S2140045800020EEE70B4BD9610020EAE7094B996261
S2140045900020E6E7084A094909480A4DA8472100CD
S2140045A00948A8470D20094B98470C204042D8E7F9
S2140045B07CEE00003C150020D2020000CCEE00008D
S2140045C054EE0000D5D40000E8F1000009D5000044
S2140045D010B52C2200210648064B98470648074B84
S2140045E0984707490320074B9847002010BDC04650
S2140045F03C150020C13C0000ED3C00005D39000089
S214004600FD3C00004D45000030B59FB0040015008D
S2140046102C2836D01B2844D0062852D00E282ED060
S21400462032285ED03D2800D16BE02F2800D178E0FC
S214004630342800D18AE0112800D1AAE0132800D13E
S214004640C0E0042800D1CFE0652800D1DEE00928CC
S21400465000D1EDE02A2800D1FCE0272800D10BE1AC
S214004660202800D11AE11022FF329B499B489C4D1E
S214004670A84721009B48A8470D209B4B98471FB092
S21400468030BD0023042203A92800984CA047002828
S214004690F5D1974B1B68002BF1D003A92C30984717
S2140046A0EDE70023082203A92800904CA047002825
S2140046B0E5D18F4B1B68002BE1D003A91B30984730
S2140046C0DDE70123302203A92800884CA0470028F4
S2140046D0D5D1874B1B68002BD1D003A9063098474D
S2140046E0CDE70023182203A92800804CA047002805
S2140046F0C5D17F4B1B68002BC1D003A93230984729
S214004700BDE70123002200212800784CA04700289E
S214004710B5D1774B1B68002BB1D000213D309847B0
S214004720ADE76422002103A8724B98470023642259
S21400473003A928006D4CA0470028A0D16C4B1B682D
S214004740002B9CD003A92F30984798E7002304221B
S21400475003A92800654CA047002800D08FE76648CC
S2140047605F4CA0470398030CFF210B40020A0A4047
S2140047700140000E00906148A0470D205A4B984714
S2140047805B4B1B68002B00D179E70021342098474B
S21400479075E700225A4B1A700023043203A928003A
S2140047A0524CA047002800D069E703AB1A78554B57
S2140047B01A704F4B1B68002B00D160E703A911301D
S2140047C098475CE700232C2203A92800474CA04703
S2140047D0002800D053E7464B1B68002B00D14EE75D
S2140047E003A9133098474AE7002304221CA928008F
S2140047F03E4CA047002800D041E73D4B1B68002BED
S21400480000D13CE71CA90430984738E7002304226F
S2140048101CA92800354CA047002800D02FE7344BB1
S2140048201B68002B00D12AE71CA96530984726E7AD
S2140048300123642203A928002C4CA047002800D09E
S2140048401DE72B4B1B68002B00D118E703A9093086
S214004850984714E70123042203A92800234CA04705
S214004860002800D00BE7224B1B68002B00D106E780
S21400487003A92A30984702E70023042203A9280048
S2140048801A4CA047002800D0F9E6194B1B68002BED
S21400489000D1F4E603A927309847F0E60023082263
S2140048A003A92800114CA047002800D0E7E603AB78
S2140048B09A8828000830012303990C4CA04700284A
S2140048C000D0DCE60A4B1B68002B00D1D7E603A914
S2140048D020309847D3E6C04664F2000054EE00004D
S2140048E0D5D400009CF3000009D500006544000004
S2140048F064040020C13C0000F4F100007CF30000DA
S2140049006A04002068040020F0B5C64600B507001B
S21400491088461D00069C2C3296B2002B43D05B685E
S214004920002B43D02B7A202B43D8002C44D03022A7
S21400493000212000274B98472680012F07D0002F04
S21400494009D0022F3BD1A37802221343A370A37889
S21400495001221343A3706B7AFF2B22D0013BDBB2FC
S2140049600D2B2FD8E3704346013B032B2DD82C2369
S2140049704246E2542B7A23712A7A601D6968164BE8
S21400498098472B68002B23D001222523E254296860
S214004990200026300532104B9847002004BC904675
S2140049A0F0BDE370DFE70F204042F7E70F204042FC
S2140049B0F4E70F204042F1E70C204042EEE70F20DC
S2140049C04042EBE70F204042E8E70F204042E5E791
S2140049D00020E3E7C13C0000AD3C000010B5041E1B
S2140049E02BD0674B9847002836D02000644B98475A
S2140049F0202831D82123E35C013B0D2B3BD84123F3
S214004A00E35C002B07D14233E35C002B03D1433336
S214004A10E35C002B3ED03F23E35C012B00D1ACE0EF
S214004A20032B46D0022B00D098E02133E35C083BF2
S214004A300020382B00D982E010BD2822FF325149D1
S214004A405148524B98475248524B98470D20524B6C
S214004A5098470C204042EFE79722520049494A48BF
S214004A604A4B98474D484B4B98470D204A4B984722
S214004A700C204042E0E73622FF3242494248434B90
S214004A8098474748434B98470D20434B98470C2080
S214004A904042D1E79F2252003A493B483B4B984759
S214004AA040483C4B98470D203B4B98470C204042D3
S214004AB0C2E71F33E35C013B032B14D82323E35CDC
S214004AC0102293430A2B1DD04732FF322D492E4821
S214004AD02E4B984734482F4B98470D202E4B98471F
S214004AE00C204042A8E74E22FF3226492648274B94
S214004AF098472E48274B98470D20274B98470C2061
S214004B00404299E7243420001D4B9847002807D0E0
S214004B1020001B4B9847030000201A2B00D88BE779
S214004B205E22FF3217491848184B98472048194B01
S214004B3098470D20184B98470C2040427CE7682287
S214004B40FF3210491048114B98471A48114B9847A6
S214004B500D20114B98470C2040426DE7B7225200BB
S214004B6008490948094B984713480A4B98470D20AF
S214004B70094B98470C2040425EE700205CE7C046A1
S214004B80D13C000070F2000054EE0000D5D40000C6
S214004B90C4F20000F1D5000009D50000D4F20000F0
S214004BA0E4F20000F0F200001CF3000008F300003E
S214004BB034F3000048F3000060F3000070B5531EA5
S214004BC0DBB2002A33D00133C21820241EE0273B74
S214004BD0DBB20F2B2DD81B01DBB203706D78303D96
S214004BE0EDB2092D0AD92543EDB22E00313E052E31
S214004BF002D90F20404217E0273DEDB20F2D1BD8FB
S214004C005B1903700130023190420ED00D000B7814
S214004C10303BDBB2092BDCD92343DBB21E00313E2E
S214004C20052ED4D90F20404270BD0020FCE700209E
S214004C30FAE70F204042F7E70F204042F4E7000073
S214004C4010B5044B9847002802D10122024B1A7077
S214004C5010BDC046E55B000069040020F0B58FB0CB
S214004C6001220F236B441A70002867D00268354B68
S214004C701A600022344B1A700F206844334B984752
S214004C80041E02D020000FB0F0BD0222304B1A7076
S214004C900020304B9847041E49D12F4901202F4B46
S214004CA0984704AE30002E4B984704002D482E4DF2
S214004CB0A847B37972793179308C00902B48A84791
S214004CC00D202B4FB8472748A84726226A441A21AA
S214004CD069442848A8470D20B8472248A847737A51
S214004CE0327AF1792448A8470D20B8471D48A847CE
S214004CF00123062213212148A8470D20B84719484A
S214004D00A8471F4A1F492048A8470D20B847230038
S214004D100D33B7D1F02252001C491D48124B98475C
S214004D201C481D4B98470D20114B9847AAE70022B8
S214004D30074B1A700020194B9847A3E70C246442CF
S214004D40A0E7C046640400206A040020555C00000A
S214004D5069040020D1450000094600004D450000CA
S214004D60055B0000F4F10000D5D40000B0F30000AD
S214004D7009D50000D8F30000F4F3000018F4000092
S214004D8030F400003CF4000048F400008CF2000010
S214004D9054EE000060F40000F1D50000DD5C000079
S214004DA010B50400044B9847002800D010BD200022
S214004DB0024B9847FAE7C046414C00005D4C0000A5
S214004DC010B5014B984710BD2940000010B590B0B3
S214004DD00B0004AA009200220121084CA0470028DC
S214004DE001D010B010BD002302930193009330331E
S214004DF004AA3B210130024CA047F2E70949000013
S214004E00D53D000070B590B0141E36D01368002B48
S214004E1036D05279013A032A35D8227910239A439C
S214004E200A2A33D104AB00930B0006320321194D36
S214004E30A847051E02D0280010B070BD1020164BE3
S214004E409847061EF7D06379013B03702279520813
S214004E50427021680230114B984730230293203B62
S214004E6001930096203304AABB2101200C4CA047D6
S214004E70050030000B4B9847DDE70F256D42DAE75B
S214004E800F256D42D7E70F256D42D4E70F256D42FB
S214004E90D1E7C04609490000F9D20000BD4B00002A
S214004EA0D53D00000DD3000070B590B0151E4CD057
S214004EB004AB00930B006C220221294CA047041E71
S214004EC002D0200010B070BD6C20264B9847061EFE
S214004ED0F7D06C220021244B98472968002917D068
S214004EE06B680F246442002B03D030001F4B98479A
S214004EF0E7E740333370741C202220001C4B984791
S214004F00002825D13278296820001A4B98470CE0F3
S214004F106968002916D02A7A402A02D90F246442EA
S214004F20E3E73270701C134B9847302302933C33F0
S214004F30019300963C3B04AABB2101200E4CA047DF
S214004F400400D2E70F246442CFE70F246442B8E798
S214004F50327829682000074B98470F246442C4E73C
S214004F6009490000F9D20000C13C00000DD3000042
S214004F70BD4B0000AD3C0000D53D0000F0B5CE4670
S214004F80474680B591B0141E00D170E01368002B20
S214004F9025D06368002B00D16CE0A368002B00D1FD
S214004FA06BE0A589E389EA18842A00D968E0228A9A
S214004FB080267600B24266D8ED180C355519ADB28B
S214004FC004AB00930B002A000421304EB047061EA7
S214004FD007D0300011B00CBC90469946F0BD9381C6
S214004FE0D7E728002A4B9847071EF2D00C2398468E
S214004FF080442A000021274B984701233B70A37C5E
S214005000002B01D081233B70E37C002B03D03B7840
S214005010402213433B7000237B702168002924D074
S214005020227B7A7040461C4B98477E784644E2893D
S2140050307A8061683000184B99469847788830180F
S2140050404346C31ABB80228AFA80A168C847302329
S21400505002930195009704AABB2101200F4CA0479C
S214005060060038000E4B9847B3E74646DFE70F26A4
S2140050707642AEE70F267642ABE70F267642A8E7E3
S2140050800F267642A5E70F267642A2E709490000DA
S214005090F9D20000C13C0000AD3C0000D53D000048
S2140050A00DD30000F0B58BB01E0010AB1D8811AB01
S2140050B01C7807AB00270797089019725D72634249
S2140050C05C416400202920D9022A3AD031D9032A2B
S2140050D04ED0042A5BD1002E62D01422002102A8F2
S2140050E0314B9847039637001537049730002F4DFD
S2140050F0A84702ABD8813800A84702AB18821A002E
S21400510007A920002A4B984719E00191002501279E
S2140051100139C9B2FF2905D0435C002BF8D10191B3
S2140051203D00F5E7002DCFD007AB69460979197227
S214005130CAE7012A2BD107A920001E4B98470BB0BF
S214005140F0BD002E26D000230293039302AA13720A
S2140051503000164B9847402808D0039602AB1872CA
S21400516002AA07A92000144B9847E8E70296F7E73B
S214005170002E12D0B31C02937378013B02AA13715F
S2140051803378537107A920000C4B9847D7E70F20B8
S2140051904042D4E70F204042D1E70F204042CEE7FE
S2140051A00F204042CBE7C04675D30000D13C00003C
S2140051B07D4F0000CD4D0000A94E0000054E0000BA
S2140051C030B583B006AC2488002501950094024CC7
S2140051D0A04703B030BDC046A550000010B586B04D
S2140051E00100062204A8074B984700230293019368
S2140051F00093083304AA02210120034CA04706B0FE
S21400520010BDC046AD3C0000D53D000000207047F4
S21400521070B504000D00074B9847002800D070BDFD
S21400522029002000044B98470028F8D1034B9847E4
S214005230F5E7C046453D0000E95800009D3D0000EA
S21400524010B50400064B9847002800D010BD20007B
S214005250044B98470028F9D1034B9847F6E7C04619
S214005260453D00007D5900009D3D000010B590B002
S2140052700A1C302900D930220132D2B2010004A81B
S214005280064B98470023029301930093303304AAF9
S21400529007210120024CA04710B010BDAD3C000015
S2140052A0D53D000070B58EB00D001600202914D82C
S2140052B005AC0A0001002000094B984700236355FF
S2140052C02122A65402930193009324332200252121
S2140052D00120044CA0470EB070BD0C204042FAE7F7
S2140052E0AD3C0000D53D0000F0B5BBB004000D009D
S2140052F0160000283CD0204B9847002803D00C20EE
S21400530040423BB0F0BD8822210004A81B4FB8479E
S214005310210088310C22D9206844B8472800184B51
S2140053209847002816D0002D14D004AC402229003F
S21400533026A8124B9847C823E6540023114A137038
S214005340029301930093D8332200882101200E4C4B
S214005350A047D6E70D4A0E490E480F4B98470F4810
S2140053600F4B98470D200F4B98470C204042C8E73C
S2140053700C204042C5E7C046DD490000AD3C0000B9
S214005380D13C00006A040020D53D00003E06000027
S214005390A0F2000054EE0000D5D400007CF400001B
S2140053A0F1D5000009D50000F0B5A9B005000191BF
S2140053B0170003AC8822010020000A4EB047413592
S2140053C00422290025A8B0470422290026A8B047B1
S2140053D000229023E2543A0001992000024B98479D
S2140053E029B0F0BDAD3C0000E952000010B584B015
S2140053F0002302930193009300221A210120024CFD
S214005400A04704B010BDC046D53D0000F0B583B03F
S21400541080256D000543A5246401084F084E290029
S2140054202000B8470023019301A92000B0470028B8
S214005430F5D1019B9D42F2D103B0F0BD295A000080
S2140054401D5A000000B583B00023019301A911483E
S214005450114B9847002801D003B000BD80214900B9
S214005460019B194301910B480C4B98470028F3D138
S21400547001A9D0204001084B98470028ECD1802194
S2140054804902019B19430191D0204001034B9847E4
S214005490E2E7C046081400001D5A0000295A000022
S2140054A010B582B0284B1C68002C04D0264B1C6814
S2140054B0200002B010BD190080204001234B984701
S2140054C0002803D00022204B1A60F1E701A92048EB
S2140054D01E4B9847002803D000221B4B1A60E7E7B4
S2140054E0194B1B681B4A93420ED01B4A934212D09C
S2140054F01A4A93421CD01449194A0B681A40A02332
S214005500DB0213430B60D1E7019B012BF3D0154A56
S2140055100D4B1A60EFE7019B032BECD0042B03D056
S214005520114A094B1A60E6E7104A074B1A60E2E791
S2140055300549EC208003054B98470028DBD0002265
S214005540014B1A60B4E7C0466C0400201D5A0000E8
S214005550F4130000A0021000B0021000F0001000CB
S214005560FFFFF0FFA1021000B2021000B10210000F
S21400557030B583B0164C012501A91020A04700289D
S2140055801CD1019B2B42F7D101A90130104B984743
S214005590002813D101998B0707D50223994301915F
S2140055A001300C4B9847002808D101A90B20084B66
S2140055B09847002802D10199CB0701D403B030BD2B
S2140055C00123994301910B30024B9847F6E7C046FA
S2140055D01D5A0000295A0000F0B583B0002301933D
S2140055E0009301A90B20284B9847041E30D101993F
S2140055F0CB0706D4012319430B20244B9847041EDF
S21400560026D101A90120204B9847041E20D10199DC
S2140056108B0720D505251C4F1D4E69460F20B84721
S214005620041E20D1009B5B072BD40220B047013D0F
S214005630002DF2D1AD22520016491748174B984755
S2140056401748184B98470D20174B98470424644278
S214005650200003B0F0BD0223194301200B4B9847EE
S214005660041ED7D0F4E7A82252000A490A480B4D78
S214005670A847009A21000D48A8470D200A4B9847D6
S214005680E6E70B4B9847E3E71D5A0000295A00004F
S2140056901D39000090F4000054EE0000D5D4000040
S2140056A0D8F40000F1D5000009D50000C0F40000D1
S2140056B0055A0000F0B5C64600B58046364D374C54
S2140056C0374E2800A047002802DB0120B047F8E745
S2140056D03448324B9847C30746D54346022B26D05C
S2140056E04346032B2DD04346042B33D02E492F4858
S2140056F02F4B984700242F4B98470005000D2E4B44
S21400570098422DD9022020432C4B98472C482D4CEC
S214005710A04725492C48A0470D202C4B98472C49DC
S2140057202C48234B9847002004BC9046F0BD2A49DD
S2140057302A481F4CA047802149031C48A047002444
S214005740D9E7254925481A4CA04700211748A04705
S2140057500024D0E714491548154B98478024CAE71B
S2140057602000164B9847D1E701200D4B9847194863
S2140057700A4B98478024A401194D094F074EA842AA
S214005780ABD00120B8471348B047013C002CF6D1F7
S21400579005204042C8E7C04614100000115A000019
S2140057A01D390000BC070200611330138C10000086
S2140057B0295A0000A15400009F0300000D54000069
S2140057C0F4F10000D5D40000F4F4000009D5000080
S2140057D0612F52EF0C000C007DD51C3CAC0702007C
S2140057E09ED0AD1070B582B0154B0193154B00934B
S2140057F00238012811D98024A4010020124E134D2E
S214005800009B98420ED00220B0470198A847013C62
S214005810002CF5D10520404209E00D4B01930D4BBD
S2140058200093E8E7009A074B00209A4201D002B0A6
S21400583070BD00210248084B98470020F7E7C04695
S2140058408C100000362653021D390000115A000045
S214005850AC070200C3C15DD7295A000010B582B05C
S2140058600023019301A9A0204001144B9847041E71
S21400587015D11349019B19400191A0204001114BFD
S2140058809847041E16D0104A10491148114B9847E5
S2140058901148124B98470D20114B98470AE0114AC1
S2140058A00A490B480B4B98470B480C4B98470D2062
S2140058B00B4B9847200002B010BDC0461D5A000092
